:02000004901159
:105300006F0040009702F36F9382C279739052301E
:105310007350003073504030930240007390227CF1
:105320000F00F00F9302C0007390327C0F00F00F5B
:1053300097E1EE8F938141DA17B1EE8F1301812C43
:1053400097D2EE8F938202AC17B30400130383014C
:105350000B30030097B3EE6F9383C378638003022F
:105360000B0083FF130303020B3003000B9082FF3B
:1053700093820202938303FEE34470FE97C2F26FAE
:105380009382425A174300001303C33B0B300300C0
:105390009733EF6F938303C3638003020B0083FF94
:1053A000130303020B3003000B9082FF938202026F
:1053B000938303FEE34470FE97B2F26F938282C43C
:1053C00017030000130303240B3003009303004171
:1053D000638003020B0083FF130303020B300300FF
:1053E0000B9082FF93820202938303FEE34470FEDC
:1053F00097C2F26F9382821A17C3F26F130303529C
:10540000638A62009303000023A07200938242002B
:10541000E3CC62FE97B2F26F9382C2FF17B3F26FD2
:105420001303C310638A62009303000023A0720079
:1054300093824200E3CC62FE9742F36F9382824CE8
:105440001783F36F13038348638A6200930300009A
:1054500023A0720093824200E3CC62FE97B2F26F07
:105460009382C20C170300001303835D97C3EE6F92
:10547000938343C0E38E03F6032E030023A0C201EF
:1054800093824200130343009383C3FFE34670FEFD
:10549000B762000073A002307310300097E2000082
:0854A0009382C28B67800200B9
:1054A80000000000CAFED00D02000000000000004D
:1054B800627332316520312E302E31350000000004
:1054C80000000000000000000000000000000000D4
:1054D80000000000000000000000000000000000C4
:1054E800756E6B6E6F776E000000000000000000A4
:0854F8000000000000000000AC
:10560000000000000000000000000000000000009A
:10561000000000000000000000000000000000008A
:10562000000000000000000000000000000000007A
:105A1000942E1290089311900A8711901887119074
:105A2000062F1290C07C1190102F1290D68E1190DC
:0C5A3000FA831190068C1190562E1290F3
:105A3C0017130E906700232017130E906700432254
:105A4C0017130E906700835B17230E906700E3908B
:105A5C0017730D90670023E317530E90670043EC08
:105A6C0017530E90670003EC17530E906700C3EBAF
:105A7C0017530E90670083EB17530E90670043EBA0
:105A8C0017530E90670003EB17D30E906700E3BB20
:105A9C0017D30E90670003EE17D30E90670083E7C1
:105AAC006F8070540000000017D30E90670063E6FF
:105ABC006F80305B0000000017F30E9067008306C8
:105ACC0017F30E9067002301172310906700633DB6
:105ADC0017E30E906700A38E17F30E906700C38038
:105AEC001723109067004365172310906700A339A4
:105AFC00172310906700C339172310906700C33920
:105B0C001723109067000355172310906700033775
:105B1C00172310906700E335172310906700433F5D
:105B2C00172310906700833E172310906700834A59
:105B3C00172310906700E342172310906700C35699
:105B4C0017F30E906700630317F30E906700430082
:105B5C0017F30E906700A30817F30E9067008305E8
:105B6C00172310906700233F17B30E90670003971D
:105B7C00172310906700E339172310906700833BBD
:105B8C00172310906700233717A30F906700830328
:105B9C0017A30F906700030217A30F90670003026F
:105BAC0017A30F906700430017A30F906700A3F390
:105BBC0017A30F906700A3F317A30F906700E3F1EF
:105BCC0017A30F90670023F317A30F90670043F6FA
:105BDC0017A30F906700E33617A30F9067004334A9
:105BEC0017A30F906700633617A30F90670063032A
:105BFC0017A30F90670023066F80F037000000009A
:105C0C0017C30E906700237917C30E906700437972
:105C1C006F80F036000000006F80B02E0000000096
:105C2C006F80502C000000006F8070270000000077
:105C3C006F80D01E000000006F80B02200000000BA
:105C4C006F80F032000000006F8090300000000088
:105C5C006F80B02B0000000017D30E9067002384D8
:105C6C006F8070320000000017C30E906700E37362
:105C7C0017C30E906700E36817C30E906700236A82
:105C8C0017C30E906700036C17F30E906700C3F8F0
:105C9C0017F30E90670023F8172310906700232842
:105CAC006F70501F000000006F7030140000000077
:105CBC0017A30F90670003DD17A30F90670063D73E
:105CCC006F70F05E000000006F8030090000000073
:105CDC006F802079000000006F70402A00000000E7
:105CEC006F700021000000006F7020260000000083
:105CFC006F70C026000000006F7060210000000073
:105D0C006F700023000000006F70E0520000000074
:105D1C006F70E06A000000006F70804900000000A6
:105D2C006F70C03200000000170312906700E397F9
:105D3C0017030F906700C3F917030F90670083F8E0
:105D4C0017030F90670083F617030F906700C3F6D5
:105D5C0017030F90670083F817030F906700E30396
:105D6C0017030F906700030417030F906700A30934
:105D7C0017030F906700030417030F906700A3022B
:105D8C0017030F906700630817030F9067006303F6
:105D9C0017030F906700C30317030F906700630688
:105DAC0017030F906700230817030F906700630712
:105DBC0017030F906700230617030F906700630506
:105DCC0017030F90670063DB17F311906700239C98
:105DDC0017030F906700C3D817030F90670043D2C7
:105DEC0017030F90670043DE17030F90670083CEF5
:105DFC0017030F90670083C817230F906700C31811
:105E0C0017230F906700C33B17130F906700238A6B
:105E1C0017230F906700433E17030F906700C313BF
:105E2C0017F31190670043C917230F906700E31E07
:105E3C0017030F906700C37F17130F90670023861B
:105E4C0017230F906700431917030F906700630720
:105E5C0017130F906700C38B17230F906700E38213
:105E6C0017130F906700C3F117030F906700C30F50
:105E7C0017030F906700E306172310906700430B7E
:105E8C0017131090670043E317131090670043DC5F
:105E9C0017131090670023F91713109067004392A3
:105EAC0017131090670043AF17131090670083AC63
:105EBC00171310906700E38F17530E906700C3A75A
:105ECC0017530E90670083A717530E90670043A7D4
:105EDC0017530E90670003A717530E906700C3A6C5
:105EEC0017530E90670083A617530E90670043A6B6
:105EFC0017530E90670003A617530E906700C3A5A7
:105F0C0017530E90670083A517530E90670043A597
:105F1C0017530E90670003A517530E906700C3A488
:105F2C0017530E90670083A417530E90670043A479
:105F3C0017530E90670003A417530E906700C3A36A
:105F4C0017530E90670083A317530E90670043A35B
:105F5C0017530E90670003A317530E906700C3A24C
:105F6C0017530E90670083A217530E90670043A23D
:105F7C0017530E90670003A217530E906700C3A12E
:105F8C0017530E90670083A117530E90670043A11F
:105F9C0017530E90670003A117530E906700C3A010
:105FAC0017530E90670083A017530E90670043A001
:105FBC0017530E90670003A017530E906700C39FF2
:105FCC0017530E906700839F17530E906700439FE3
:105FDC0017530E906700039F17530E906700C39ED4
:105FEC0017530E906700839E17530E906700439EC5
:105FFC0017530E906700039E17530E906700C39DB6
:10600C0017530E906700839D17530E906700439DA6
:10601C0017530E906700039D17530E906700C39C97
:10602C0017530E906700839C17530E906700439C88
:10603C0017530E906700039C17530E906700C39B79
:10604C0017530E906700839B17530E906700439B6A
:10605C0017530E906700039B17530E906700C39A5B
:10606C0017530E906700839A17530E906700439A4C
:10607C0017530E906700039A17530E906700C3993D
:10608C0017530E906700839917530E90670043992E
:10609C0017F30E906700630A17F30E906700E30482
:1060AC0017F30E906700C30217530E906700839787
:1060BC0017530E906700439717530E906700039782
:1060CC0017530E906700C39617530E906700839674
:1060DC00172310906700A3A917530E906700C39560
:1060EC0017530E906700839517530E9067004395D6
:1060FC0017530E906700039517530E906700C394C7
:10610C0017530E906700839417530E9067004394B7
:10611C0017530E906700039417530E906700C393A8
:10612C00172310906700C3A417F30E90670043FE6B
:10613C0017530E906700839217530E90670043928B
:10614C0017530E906700039217530E906700C3917C
:10615C0017530E906700839117530E90670043916D
:10616C0017530E906700039117530E906700C3905E
:10617C0017530E906700839017530E90670043904F
:10618C0017530E906700039017530E906700C38F40
:10619C0017530E906700838F17530E906700438F31
:1061AC0017530E906700038F17530E906700C38E22
:1061BC0017530E906700838E17530E906700438E13
:1061CC0017530E906700038E172310906700039AE5
:1061DC0017F30E90670023A617F30E90670003A524
:1061EC0017F30E90670063A617F30E90670023A5B4
:1061FC0017F30E906700E3A617F30E906700A3A5A4
:10620C0017F30E90670003A217F30E906700E3A03C
:10621C00171310906700839A6F80005C00000000D9
:10622C0017530E906700438817530E90670003882E
:10623C0017530E906700C38717530E906700838720
:10624C0017530E906700438717530E906700038710
:10625C0017530E906700C38617530E906700838602
:10626C0017530E906700438617530E9067000386F2
:10627C0017530E906700C38517530E9067008385E4
:10628C0017530E906700438517530E9067000385D4
:10629C0017530E906700C38417530E9067008384C6
:1062AC0017530E906700438417530E9067000384B6
:1062BC0017530E906700C38317530E9067008383A8
:1062CC0017530E906700438317530E906700038398
:1062DC0017530E906700C38217530E90670083828A
:1062EC0017530E906700438217530E90670003827A
:1062FC0017530E906700C38117530E90670083816C
:10630C0017530E906700438117530E90670003815B
:10631C0017530E906700C38017530E90670083804D
:10632C0017530E906700438017530E90670003803D
:10633C0017430E906700C37F17430E906700837F4F
:10634C0017430E906700437F17430E906700037F3F
:10635C0017430E906700C37E17430E906700837E31
:10636C0017430E906700437E172310906700C3BB42
:10637C0017430E906700837D17A30F9067004307A8
:10638C0017A30F906700C30917A30F90670083052D
:10639C0017A30F906700C30217A30F9067000300A9
:1063AC0017A30F906700030117A30F906700C3FF9B
:1063BC0017A30F90670003FD17A30F90670043FD11
:1063CC0017A30F906700030617A30F906700C30075
:1063DC0017A30F906700830217A30F906700C302E7
:1063EC0017A30F906700030317A30F906700A30375
:1063FC0017A30F90670083FD17A30F906700A30AE4
:10640C0017A30F906700030917A30F906700C3072A
:10641C0017A30F906700C30817A30F906700230BF7
:10642C0017A30F906700E30917A30F906700A30849
:10643C0017A30F90670063071703109067006302A0
:10644C001703109067006302170310906700030294
:10645C00170310906700A3011703109067008300C7
:10646C0017B30F906700C3A417C30F906700E344E2
:10647C0017B30F90670003B117B30F906700A3B366
:10648C0017C30F906700C32E17A30F9067004360CC
:10649C0017B30F906700438B17B30F906700C3942B
:1064AC0017B30F906700839A17C30F906700E332FE
:1064BC0017C30F906700032B17A30F906700E30B14
:1064CC0017A30F906700E34717C30F906700A33122
:1064DC0017C30F906700832217A30E906700C3C5E4
:1064EC0017A30E90670063C817A30E90670043CBE9
:1064FC0017A30E90670063CE17A30E906700C3D14D
:10650C0017A30E90670063D517A30E90670023EDB9
:10651C006F40C04B000000006F40A0540000000012
:10652C0017630D90670023406F40C07E0000000091
:10653C006F00D011000000006F0070100000000010
:10654C0017930E906700C37C17E30E90670083F5DA
:10655C0017E30E906700230117E30E9067004301C9
:10656C0017E30E90670063F817E30E906700E3F2F1
:10657C0017E30E90670063FE17E30E90670023FD90
:10658C0017E30E90670003FC17E30E906700E3FA25
:10659C0017E30E906700C30A17E30E906700830D94
:1065AC00171310906700638C17E30E906700A31EFF
:1065BC0017E30E906700231317231090670023999D
:1065CC0017430E906700C35817131090670023C829
:1065DC0017131090670043D017131090670023BC5B
:1065EC0017430E906700035717430E906700C3566E
:1065FC0017430E906700835617430E90670043565F
:10660C0017430E90670003566F40407A000000005D
:10661C006F40A03D00000000170310906700031BA3
:10662C00170310906700032E1703109067002323A5
:10663C00170310906700C32E6F40603800000000F5
:10664C0017E30E90670063061723109067002391E1
:10665C00172310906700038F172310906700E38FA8
:10666C002C0107000700170005020200FFFF0000C5
:10667C0001000000010000000100BC0DAC0D2C0E4F
:10668C00CC0D1000540BD40ACC0F2C0E0800282271
:10669C00CC192805D02E04010808B0260401CC0F13
:1066AC0007000C1B040110000C181000140A100039
:1066BC00740AD40B1000D40B540B0800682405008A
:1066CC00E4330401004006010A00000503000A003F
:1066DC000A00000500FC100732FC064C08000A00FA
:1066EC00020002000A00000060EA00001400000032
:1066FC00409C00000A00010001009700080A0000FD
:10670C0000000000187B1190FFFFFFFF000000004D
:10671C00286E696C29000000286E756C6C290000CD
:10672C00280000006E000000750000006C000000E6
:10673C006C000000290000000000000000000000B8
:10674C00C83E0300F63D03007631030064561290F8
:10675C005C561290CA1E0300421F0300E82C030073
:10676C0060561290685612906C5612907056129099
:10677C00010000000000000000000000000000000C
:08678C0000000087000000007E
:1067940000010000F2D012900102000006D1129014
:1067A4000203000014D112900302000016D11290CB
:1067B4000204000012D3129004050000ECD21290DF
:1067C40005040000EED21290040200000000000054
:1067D4000200000020D112901C250000941100003A
:1067E40000000000000000000000000000000000A5
:1067F4000000000000000000000000000000000095
:106804000000000000000000000000000000000084
:106814000000000000000000409704000000000099
:106824000000000000000000000000000000000064
:106834000000000000000000000000000000000054
:106844000000000000008000000000087A0C000036
:10685400EEEF332B1D1CA2000D0000000001000010
:10686400A27C0100AD7C010001010000A27C0100BA
:10687400AD7C0100FFFFFF000000000000000000ED
:10688400FFFFFF000000000000000000D0000080B7
:1068940000500000CC0000000202020000000000D2
:1068A40000000000000000000000000000000000E4
:1068B40000000000569F01005A9F01005E9F0100E6
:1068C400909F010008A0010022A001000000000028
:1068D40000000000000000000000000000000000B4
:1068E4000000000000180400F4170400A2A1010035
:1068F4001AA20100000000000000000000000000D7
:106904000000000000000000000000000000000083
:1069140000000000101804000418040014A301006F
:10692400C0A3010024A40100B8A40100FFFFFFFFDD
:10693400FFFFFFFF060000001E00282300000000E8
:106944000000000000000000000000000000000043
:106954000000000000000000000000000000000033
:106964000000000000000000000000000000000023
:1069740000000000B012020000000000000000004F
:106984000000000000000000000000000000000003
:106994000000000000000000AE1202000000000031
:1069A4000500640002056400000000002D01DD0103
:1069B4005A02BB020A034D038703BA03E803110416
:1069C40037045A047A049804B404CE04E704FF0498
:1069D40015052A053E0552056405760587059705C4
:1069E400A705B605C505D305E105EF05FB050806B2
:1069F400140620062C06370642064D065706610685
:106A04006B0675067F06880691069A06A306AC06F1
:106A1400B406BC06C406CC06D406DC06E306EB06C4
:106A2400F206F906000707070E0715071C072207D9
:106A340029072F0735073B07410747074D0753072A
:106A440059075E0764076A076F0774077A077F07A9
:106A5400840789078E07940798079D07A207A7074D
:106A6400AC07B007B507BA07BE07C307C707CC070B
:106A7400D007D407D907DD07E107E507E907ED07E4
:106A8400F107F507F907FD070108050809080D08CE
:106A94001008140818081C081F08230826082A08C8
:086AA4002D0831083408380800
:106AAC00000000003880B7A70400AA85AA8403A5BB
:106ABC0007679700F36FE780C01A2A8401C9A6867E
:106ACC000146A6859760F26FE780C07022853480FE
:106ADC003880B7A70400AA85AA8403A50767970086
:106AEC00F36FE780801C2A8401C9A6860146A6851F
:106AFC009760F26FE780006E22853480B7A70400A0
:106B0C00AA8503A507671703F36F67008315388001
:106B1C00B7A70400AA85AA8403A507679700F36F9B
:106B2C00E78020142A8401C9A6860146A6859760B1
:106B3C00F26FE780206A2285348017B3F26F67000A
:106B4C00E3DF588019E17D55548000416DFCB7A9F5
:106B5C000400AA8403A50967B1459700F36FE78089
:106B6C00401088C06DD1EF10600A2A8909C98C4089
:106B7C0003A509679700F36FE780A01680C04A85CC
:106B8C00E1B738801DC12A840841EF10000DB7A76A
:106B9C000400AA840C4003A507679700F36FE780F5
:106BAC00401426852320040034807D55F5BF1881C0
:106BBC0081CD36863AC4AE8632C658000146994518
:106BCC002AC2EF10401514817D55F5BF81456F1019
:106BDC0060201880EF10C0220F00F00F1480188076
:106BEC00EF1080230F00F00F14806F1060246F10D3
:106BFC00404105C11C413BF7071437A7040003278C
:106C0C00C75B5B17F7147827BB11070199E36F106B
:106C1C00E0287D558280288019C52A840841EF1010
:106C2C00802D232004002480AE8709C963C8050089
:106C3C00AA851395070141816F10A06E7D55828046
:106C4C00AE8709C93BF40502AA851395070141815A
:106C5C006F10806E7D55828001C508416F10E06E0B
:106C6C008280788201E5814426857482B7AA04006B
:106C7C002A8403A50A67AE8991453689328A970022
:106C8C00F36FE78000FEAA8479DD2317010052CC54
:106C9C0093070020CA866373F900BE86A9472316A2
:106CAC00F1002C0093070010480036CA3ECE22C4D7
:106CBC004EC802C2EF10707309C903A50A67A685F6
:106CCC009700F36FE780E00179BF92479CC069BFE2
:106CDC0009C50841A19D6F10B0797D55828005C111
:106CEC002880B7A704000041AA8503A50767970071
:106CFC00F36FE78000FF228520806F101062828086
:106D0C001880EF10601401451480288005C95C417F
:106D1C0095C71C4185E72A8448459700F36FE780A7
:106D2C0080D109CD48449700F36FE780C0D0184458
:106D3C005040A286894520806F10007A7D552480B2
:0C6D4C0001C50A216F1070127D55828075
:106D580018801306803EB94597B0F26FE780802C03
:106D680001C51F0513130080148081CD9C4591CB6C
:106D7800DC4581CB19E99F07C8B804009C2391CB57
:106D880082801F051013008082801F050213008077
:106D980082801F0500130080828081CD9C4191CBA9
:106DA800DC4181CB19E99F07C8B804009C2391CB2B
:106DB80082801F050913008082801F05021300804E
:106DC80082801F0500130080828058803DE99387E8
:106DD800F5FF1F073FE13300636DF7041F04C8B8D0
:106DE80004001C20B9EB3B771608AE848545328930
:106DF800012491469F09D0B80400B68501464E8506
:106E08009760F26FE780403D4E85F533A6859F0673
:106E1800761A04004A8601450D28AA8409C54E85BC
:106E2800ED3B2685548085471CA01CB02301240116
:106E3800CDBF9F0405130080EDB79F0401130080A8
:106E4800CDB79F0402130080E9BF78802A8AB284F4
:106E58002E8441225285312A52852D2A931A2A00DE
:106E68009F0980BC040033863A01C92093E71704C0
:106E78006D28BD9B5D2893E707209CC29F07A086CD
:106E88000100014963F887001F09801A0600333999
:106E9800890005095285B9223307A40033578702B0
:106EA8009F075C1E04009B8727059E239385E700A8
:106EB80063F1E5080D8F93561700158F9385F7FF3B
:106EC800B6951907B3865901A19D9C42219F41742B
:106ED80063140906945BE18E558F98DBD45B33F716
:106EE80086004D8FD8DB3386590118429306190066
:106EF8008D8A1C43E59B9BA7D7021CC3BB140902C0
:106F0800184213F674001C4FE19B5D8E10CFB387B7
:106F180059019C4352859F05641E0020D84313677E
:106F28001700D8C38120014574809CC214429C423A
:106F380082800147814659B73B160901D45FE18E2B
:106F4800558FD8DFB043337786004D8FB8C361BF04
:106F5800F443E18E558FF8C3A847337785004D8FEA
:106F6800B8C751B79F0770BC04001B85A7040CC1A4
:106F780082800A059F0780BC0400AA9798435C4357
:106F8800F99B5CC39F0770BC04003E952320050055
:106F9800014582809F0774BC0400DB97A70A21473C
:106FA800FAA3DAA31147BAA30D479AA39F0780BC97
:106FB80004001B85A7041C41F84B137707F01367DF
:106FC8004700F8CBB84B137707F013673700B8CBF7
:106FD8008280B727002083A747FA1F0780BC0400D8
:106FE8001CC3828001E505456FE0400301458280AE
:106FF80011C9BB150501E14713B515001505BE8577
:107008006FE04002DD47CDBF8280188037C7025746
:107018008357070981460146A19FF99BA19F231821
:10702800F7089F05F644040001471305F00451369C
:107038009F071473119083C5F7041305F004453EA8
:107048001305F004493EB7D7025723A00794054714
:1070580023A0E79423A6E794148045BFB7470057B9
:10706800239207227D572390E722B7C70257239C14
:10707800071E7D472392E71EED46239CD71E2398C3
:10708800071C85462396D71C2398D71C2398071ED0
:107098002396E71E2398E71E82805880BB7F150839
:1070A800ADCD2E89AA8997B0F26FE780E0901F07CF
:1070B800E01F00200043AA84631BE402268597B0E2
:1070C800F26FE780E09081457145F93AAA8431C9A9
:1070D8002304350131051D2897B0F26FE780C08D74
:1070E8005C4089CF44C080C0DCC084C301A81C2494
:1070F800639C37011305C4001128268597B0F26FE9
:10710800E780008D0145548000407DB7C1464A861E
:10711800B6851773F26F670043931F05010000805F
:10712800DDB71F0505000080F9BF05CD18419F0791
:10713800A0C2040098C35841D8C3184598C75845F9
:10714800D8C7184998CB5849D8CB184D98CF584D1F
:10715800D8CF185198D35851D8D3185598D75855CF
:10716800D8D782806880BB793503BBF8350779CEDC
:107178001C46E9CF32842E8AAA891F09E81F0020FD
:1071880097B0F26FE780408383270900AA84C1176C
:10719800138707016313E904268597B0F26FE78028
:1071A800208361459520AA840DC523003501A300DD
:1071B8004501B1462286110569209C44BDC348405B
:1071C80005059920C8C031E5268597A0F26FE780AC
:1071D80060E51F05050000802DA098236314370380
:1071E8009833631147035840C84398C71844D8C711
:1071F80054401040B920268597A0F26FE780407D63
:10720800014564809C4B61B7814517A3F26F670005
:10721800E3E1544010403520D8405C40BA972380C1
:10722800070097A0F26FE780207983274900E9D704
:10723800138704012322E90023A82401DCC898C38A
:1072480065BFB6851773F26F670023801F050100BD
:10725800008045BF28801F0488C20400E14601461B
:10726800B68522859760F26FE78000F7A5473EA4B0
:1072780024809F0748C204008A23130715009AA395
:10728800828018800145212010806F30914228812A
:107298002C002A84EF40210BA247B7F6FFDF1387A3
:1072A80006E03E971F06000C00006369E6023247BD
:1072B8009386F6DFBA96BE966362D6029F065CC2D4
:1072C80004009CC222859F0758C2040098C3EF405F
:1072D800A1099F0760C2040088C324819305D011C7
:1072E800254597A0F26FE780E0D4C5BF2573202518
:1072F800643A206F616C5F696E745F637265617474
:1073080065207265743A307825780A000707070601
:1073180007070707070707060007070707070707FD
:1073280007070707070706060506060606060303F6
:107338000000060606040606060604000006060601
:1073480006050505060606060606060601010106E7
:1073580006020606060606060606000606060606CF
:08736800060600060300000008
:107370009B37A5BE1B95A7BE8280AA8798233B0793
:107380000720930677FF3BE506053B05072BBB1B54
:10739000072D85468507014509A88507C5B781469C
:1073A000D5BF5B15A00A8507198D9823130707FD24
:1073B000BB6CF70A99E23305A04082808146E1BFA9
:1073C000788A37290020832749E22E842AC63ECFB7
:1073D0002ADCFD578145AA842800B289368ABA8AF8
:1073E0003EC8BD22D28656870546CE852800792C18
:1073F00001C86257B247998F6657BA97A6971CC0C3
:10740000FA47032749E26386E70097F0F26FE780C7
:10741000E0A0748AFD567D5765B72A88AE86B2878C
:107420006304B504F958B30816033387A540118FD8
:1074300063E6E80017A3F26F6700C3BD33C7A5007A
:107440000D8B6374B5042A860DC7B297630DF600E1
:107450006F036000E5BF850603C7F6FF0506A30FAF
:10746000E6FE028381E7C286368582806FF3BFFE27
:10747000FD17137736007DF7BBE4F7049842F11748
:107480001106232EE6FE9106C5BF19EBB305C50014
:10749000369613F73500B307D64001EFBBF9070462
:1074A000F9D3FD173387F60018233306F80018A226
:1074B000C5BFFD15E389C6FA8347F6FF7D169CA17B
:1074C000C9BFF1173387F60018433306F80018C216
:1074D000F1B71DC2930615002A9603C7F6FF9C213B
:1074E00019C791C76385C60085066305F700330594
:1074F000F74082808505D5B701458280AA8501C9FC
:107500001F05E028002017F3F26F6700437E82809A
:107510003880868401441DC92A8497F0F26FE78081
:10752000C074BB030501268597F0F26FE780C07336
:10753000A2851F05E028002097F0F26FE7802073F6
:107540002A8409E597F0F26FE78000722285348083
:1075500058411C596CD5998F3CD91C4581C9B386BB
:10756000E74063D5D5002E9738D582803CD5828000
:10757000388018595C412A84998F3859B384E700C0
:107580007C5589CF63CCF400544018587D5534D4D1
:10759000158FB30797003CD868D4348022852528FE
:1075A000E34405FE7C54138714001444504095C3F3
:1075B000998FB385C64063DEB700B2973CD41458A8
:1075C000B387C6403E9738D8E3E9C6FCA30FA6FEB2
:1075D000E9B734D4EDB73881B724002083A744E25B
:1075E0002A843EC6912819C97D55B24703A744E2B3
:1075F0006381E70297F0F26FE78040821C500546F6
:107600009305B100228582973B18F5010345B1002F
:10761000E9BF3481188097F0F26FE780208109E993
:10762000EF10401E9F0780D804001B85A70414801C
:107630001F05C0D80400E5BF288078452A84930739
:10764000F7FFD98F7CC5584D5C496386E7005C51D4
:1076500001468145829781471CC85CCC5CC81C40B0
:1076600013F7470011C713E5070208C07D552480B2
:10767000139707017D55E34C07FE085858583A9573
:1076800008C448C01395B7017D85D5B7D8812A8431
:10769000AE893289B68CBA8A3BF205253B93050147
:1076A0000D2ED9471CC161A844402C54638CB404EE
:1076B000938514004CC084203B8CF420938774FF86
:1076C0003BEAF705938554FDF599014C99E99384BC
:1076D00034FD93B41400330C9040C92C6387B70277
:1076E0009D22638E09303B920910BB890430B52876
:1076F00063E935077C5463C507005C40FD175CC037
:10770000A12879BF552CAA8445BF7D24AA84D1BF66
:10771000712C6389B702052A93E70402BB9017789E
:1077200071246384B70205228920BBEA45107C548A
:1077300063C4072C5C40630D0900F9175CC0014568
:107740008145D481952CAA84C1BFBD24AA84E9BFF8
:10775000FD175CC01120E5B781452285D5BB638349
:1077600009183B9D390A014939A89F05147A1190DF
:10777000A6958C3182805B99240B130909FD3D2469
:107780006385B70AC920938704FDBBF3070A9F07E7
:1077900098999919E3F127FF014A938504FD3BF578
:1077A000150A9F079999991963ED47036317FA0022
:1077B0009F079999999963E62703A947B306FA02A7
:1077C00013C5F5FF3307F902B337F902B69793D61D
:1077D000F54113C6F6FF6366F600639BC704637941
:1077E000E5041F0B147A1190B3059B00593763E130
:1077F000351B6C5463C505004C40FD154CC0636FD0
:107800005A1D63944A01636B991D93F41C0063979E
:10781000041A63150C1A752A752A1385FCFFB33CEC
:1078200095019385FAFFE69529BF7922AA84A1BF25
:107830003309B700333AE900B6973E9A852A638840
:10784000B700112099BF938517004CC051A8AD22F5
:10785000AA84A1B7C1491389F9FF337939019F0D72
:10786000147A1190631D0910DD45B385B9029F0795
:107870000A7A119095819D89BE9583CB0500B385C9
:107880009D00C53D63F63501B7070008636EF90436
:107890005E867D55FD55EF90B066014A2AC62E8D55
:1078A000B3879D0003CB1700E37D3BF3E36B4DF300
:1078B0006315AA01B247E3E627F34A85D2855E86BF
:1078C0009790F26FE78080C65C4038543369AB0014
:1078D0002E8A6387E7021387170058C01120C9B7A3
:1078E00084238280A14985BF331979013369B900A6
:1078F00075286384B700813F59B77D28AA8441B7B2
:107900006528AA8471BF338929032E994520638590
:10791000B706153FB3859D00A93D63F735019F0765
:10792000C6711C07E3F127FF014AB3859D0098311A
:10793000E37937EB33363903B3864903630B0A0027
:10794000B387C600B3B7D700B3B54903BE95E39A72
:1079500005E8B296B38729031346F7FF3B9206FF6B
:10796000E361F6E83389E700333AF900369A3D28B7
:107970006389B700C93D55BF8120AA8461BF014911
:1079800051BF1D28AA8455B715206384B702653DF1
:10799000DA948C30E3EA35FF2D282D2893F41C006F
:1079A0006689568AE38704E4014CA1B55C402C54F7
:1079B00082801920AA84E9BF22855DBE63E64A0160
:1079C000631E5A0163FC2C01292029206685D68577
:1079D0008DBB89B19304200204C182809357FC417E
:1079E00033492C01B3C54701330589413339A90017
:1079F0009D8DB3852541B1B3E31309D4A1BB930792
:107A00000003E387F4D0A949DDB1000102040703B4
:107A100006050000FFFFFFFFFFFFFFFFFFFFFFFF67
:107A2000FFFFFFFFFFFFFFFFFFFFFFFFFFFFFFFF66
:107A3000FFFFFFFFFFFFFFFFFFFFFFFFFFFFFFFF56
:107A4000FFFFFFFFFF00010203040506070809FF0F
:107A5000FFFFFFFFFFFF0A0B0C0D0E0F101112139B
:107A60001415161718191A1B1C1D1E1F202122235E
:107A7000FFFFFFFFFFFF0A0B0C0D0E0F101112137B
:107A80001415161718191A1B1C1D1E1F202122233E
:107A9000FFFFFFFFFFFFFFFFFFFFFFFFFFFFFFFFF6
:107AA000FFFFFFFFFFFFFFFFFFFFFFFFFFFFFFFFE6
:107AB000FFFFFFFFFFFFFFFFFFFFFFFFFFFFFFFFD6
:107AC000FFFFFFFFFFFFFFFFFFFFFFFFFFFFFFFFC6
:107AD000FFFFFFFFFFFFFFFFFFFFFFFFFFFFFFFFB6
:107AE000FFFFFFFFFFFFFFFFFFFFFFFFFFFFFFFFA6
:107AF000FFFFFFFFFFFFFFFFFFFFFFFFFFFFFFFF96
:107B0000FFFFFFFFFFFFFFFFFFFFFFFFFFFFFFFF85
:107B1000FFFFFFFFFF000000000102020303030359
:107B2000040404040404040405050505050505050D
:107B300005050505050505050606060606060606ED
:107B400006060606060606060606060606060606D5
:107B500006060606060606060707070707070707BD
:107B600007070707070707070707070707070707A5
:107B70000707070707070707070707070707070795
:107B80000707070707070707070707070707070785
:107B9000070707070707070708080808080808086D
:107BA0000808080808080808080808080808080855
:107BB0000808080808080808080808080808080845
:107BC0000808080808080808080808080808080835
:107BD0000808080808080808080808080808080825
:107BE0000808080808080808080808080808080815
:107BF0000808080808080808080808080808080805
:107C000008080808080808080808080808080808F4
:107C100008080808080808083881B724002083A746
:107C200044E22A843EC61DC9280097E0F26FE7802F
:107C30004005224593074400232004001CC45CC077
:107C400097F0F26FE78080490145B24703A744E20D
:107C5000638AE70097E0F26FE780401C1F05061C6F
:107C60000002E5B734813881B724002083A744E2BD
:107C70002A843EC629C1280097E0F26FE7806000A1
:107C80001C44130744006394E702232004000144CA
:107C9000224597F0F26FE7806044B24703A744E2C1
:107CA0002285638EE70097E0F26FE78020171F04BC
:107CB000081C0002F1BF1F04061C0002F9BF34813A
:107CC0001880EF10405F0145148048802A842E8977
:107CD00097F0F26FE780003F4C4023200400AA8415
:107CE00089C9B7A7040003A5076797F0F26FE7807B
:107CF000000081475CC01CC49F07B4A504009C43DE
:107D0000DC4791E711281F050109000244804A85DC
:107D1000829719200145DDBF268517F3F26F6700B2
:107D2000E33B8880AA8ACDC21F0AB4A5040083273A
:107D30000A00D9CBDC4FC9CBBA89368432892E8B65
:107D40008297AA8451C5420913590941634609081B
:107D500097F0F26FE78000379C402A898DEF80C052
:107D600063800904B7A7040003A50767B14597F02E
:107D7000F26FE780C0EF2A8419C53146CE8597900F
:107D8000F26FE7802029C0C001EC15281F04030909
:107D90000002228584802D201F0404090002D5BF23
:107DA000392883270A0001449C4BE5D7DA8556859C
:107DB00082972A8479DDD6852685013FD9BF4A85F9
:107DC00017F3F26F670083311F0401090002D1B776
:107DD0001F040009000275BF1F040909000255BFF6
:107DE00028809F07B4A504009C432A8481CBDC4FE4
:107DF00091C7829701C9A2852080C1BD1F050109D5
:107E0000000224801F0500090002E5BF9F07B4A5FA
:107E100004009C4381C79C4791C382871F050109C9
:107E2000000282809F07B4A504009C4381C7DC4701
:107E300091C382871F050109000282809F07B4A5B4
:107E400004009C4381C79C4B91C382871F05010995
:107E5000000282801880AA8711C997F0F26FE7802C
:107E600040BEAA873B0205FF930715003E851080A0
:107E70006F00D06C9F07BCA5040098439F06C0A567
:107E80000400D4C294C28145230707009C420CCB56
:107E90008505D0431CC350C3D04318C2D8C3510773
:107EA0003B9AF51401458280288021C92A8497F0E5
:107EB000F26FE78020211F07C0A504005C43639A8E
:107EC000E70097F0F26FE78060211F05031D0002B5
:107ED0002480D443984398C2984354C301478546AD
:107EE000DAA7F4A798C7DCC39CC39C4B1CC097F0CF
:107EF000F26FE780A01E0145E1BF1F05021D0002D1
:107F0000C1BF2880BB7615149F07BCA50400804321
:107F10005B14A41497F0F26FE780C01A7C2485CB21
:107F20005C40631AF4025E249DE77CA49F07C0A511
:107F300004009C43D8431CC058C0D84300C3C0C3EE
:107F4000014497F0F26FE7806019228524801F04B6
:107F5000011D0002FDB71F04091D0002DDB71F044B
:107F6000011D0002DDB72880378411901305A4F8A5
:107F70009790F26FE7808019AA8505461305A4F84B
:107F8000208017A3F26F6700E3994F7574707574C2
:107F900020696C6C6567616C20737472696E67210F
:107FA0002076736E7072696E74665F7320666169A5
:107FB0006C6564210A004F73567072696E74662C8A
:107FC000206D616C6C6F63206661696C6564210A69
:107FD00000009F0700A6040098439F06F8A5040030
:107FE000D4C294C2130707028145230207FE9C42B4
:107FF0002326B7FE8505D0431CC350C3D04318C207
:10800000D8C3130707033B99F50A0145828078809E
:1080100055CEE9C161C393064700B3B7D502DDEF82
:10802000AE84B385D502B7AA040003A54A67BA890E
:10803000328997F0F26FE78080C32A8A45C597F0AE
:10804000F26FE78020089F07F8A50400C043631182
:10805000F40297F0F26FE780600803A54A67D285C3
:1080600097F0F26FE780A0C81F0504060002748035
:108070001C4054409CC21C40D4C385472302F4FEDC
:10808000930784FF232EF4FE232CF4FE9307840031
:108090005CC41CC4231394FE231434FF232044FF28
:1080A000A30204FE231A04FE231B94FE231804FEDD
:1080B000231904FE40C000C097F0F26FE780000271
:1080C0008327C4FE01452320F90055B71F050C0680
:1080D000000271BF1F050D06000251BF1F050306F8
:1080E000000271B71F050206000251B75880BB7825
:1080F000250A9F0700A6040080435B14A43097F074
:10810000F26FE78020FC5C20AA89BDC75C4C130796
:1081100084016397E7065C50930404026392F406BB
:108120005C5413078402639DE7045A287E28BA979B
:108130007A20639BE7045C30014999EBB7A7040000
:108140000C4003A5476797F0F26FE78040BA2A8991
:1081500081475CA01CC09F07F8A504009C43D8433E
:108160001CD058D0D84304C3C4C34E8597F0F26FD7
:10817000E780C0F64A8554801F090A060002F5B759
:108180001F0908060002D5B71F090B060002F1BF40
:108190001F0905060002F9BF5880E5C5BB7B350AFB
:1081A0002E842A8913068002814522859790F26FDA
:1081B000E78040E79F0700A60400844397F0F26F32
:1081C000E78040F0AA89DB942431DC20DDC7FE2063
:1081D0002320240103A9C4015EA09E247EA09E2822
:1081E0001EA4BE283EA4DE287EA4FE285EA449204C
:1081F000138784016398E70203A944029528138733
:108200000402639BE70203A9C4029D201387840232
:10821000639EE70201444E8597F0F26FE78000EC21
:108220002285548035281C48032909035D8D5C484C
:1082300008C8DD8D4CC865BF25201C4C03290903E7
:108240005D8D5C4C08CCDD8D4CCC4DBF11281C5095
:10825000032909035D8D5C5008D0DD8D4CD075B7C6
:1082600003264901054581451783F26F6700032CFA
:10827000130949FD9307C90282801F040A06000200
:1082800059BF1F041706000261BF1F040E0600023B
:1082900041BF488029CE32842E89AA8497F0F26F9C
:1082A000E78040E21F0708A604005C43639AE700EA
:1082B00097F0F26FE78080E21F0503070002448019
:1082C0009843D44398C2984354C30547238CE7FE90
:1082D000A38C27FF239D97FEDCC39CC383A7C7FF06
:1082E0001CC097F0F26FE78060DF0145C9BF1F0532
:1082F00002070002E9B79F0704A6040098439F06FF
:1083000008A60400D4C294C221078145230C07FEAD
:108310009C42232EB7FE8505D0431CC350C3D043D7
:1083200018C2D8C34107BB99F50A01458280C167CD
:10833000FD172E866304F5008145A1BF1F050807C0
:10834000000282802E863B720502854599B71F0583
:1083500008070002828028803B77150A9F0704A641
:10836000040080431B04A40897F0F26FE78080D5D7
:108370001C208DCB5C44130784006319F702230093
:1083800004009F0708A604009C43D4431CC454C4A3
:10839000D443014498C2D8C397F0F26FE78000D469
:1083A000228524801F0401070002FDB71F0409076E
:1083B0000002DDB71F0401070002DDB70CC1CCC10C
:1083C0008CC182809C411F07CCCCCCCC6393E7024C
:1083D000910563E7A5000D8D19E908C2014582806A
:1083E0009C411F07CACACACAE384E7FEEDB711055C
:1083F000EDB7FD571CC20545828048823729002011
:10840000832749E29F061CA60400D4C23ECE9F07E4
:1084100018A604009C4394C20146984292AB0506FC
:108420004C4398C3219ECCC34C439CC15CC39387EF
:1084300047023B1AF61081473EC49F078666040038
:108440003EC29F07000800003EC81F04C8A50400E4
:108450009F070087119001483ECA50C8930700103B
:108460004C000A8542C63ECC7927AA840DED37A779
:1084700004008247032787639F0524A604001CD4B9
:10848000DB17F75C9847130584001367270098C72C
:108490003537F247032749E22685638AE70097E0EC
:1084A000F26FE780A0979F040C030002DDB74482BF
:1084B00028807C252A848DE75C3589C7F917819F40
:1084C0003BF807021C4C37A504001CC4A285130509
:1084D000055D97E0F26FE780600D8D475CA4248016
:1084E0005C48D5B788803DC93BFF150341C2D9C25E
:1084F000BA8A368AB2892E8B2A8997F0F26FE78082
:1085000060BC9F071CA60400C043631AF40097F0E8
:10851000F26FE780A0BC1F05040300028480444082
:108520001C409CC01C40C4C3814444C004C097F09C
:10853000F26FE780A0BA89475CA41E282320340389
:10854000A306640164A4232A2401232C2401232EDE
:10855000540104C42310FA000145C9B71F050103E3
:1085600000026DBF1F05020300024DBF1F0500037F
:1085700000026DB71F05030300024DB748802A842F
:10858000AE8497F0F26FE780E0B32A89228597E006
:10859000F26FE780A01F2A8419E515201F04050348
:1085A0000002228544805C25BB8E07023BE1170256
:1085B0003B8607031F040E0300021120DDB74A8526
:1085C00017F3F26F670083B1AA8537A5040013057E
:1085D000055D97E0F26FE780000189475CA42307FF
:1085E000040099C044C804CC2285D9350144F1B7B0
:1085F0001F0406030002D1B70146814541B7388008
:108600002A8497F0F26FE780E0ABAA84228597E096
:10861000F26FE780A0172A8419E535201F040503AF
:108620000002228534805C253B850702BBE01702EF
:108630003B8807031F040E03000221A01F040D0343
:1086400000021120F9BF268517F3F26F670003A916
:10865000AA8537A504001305055D97E0F26FE78052
:1086600080F889475CA4230704000144D9BF1F0494
:1086700006030002F9B748802A8497F0F26FE7807A
:1086800060A42A89228597E0F26FE78020102A846F
:1086900019E515209F0405030002268544805C250A
:1086A000BB8D07023BE517023B8607039F040E03C1
:1086B00000021120DDB74A8517F3F26F670003A2AD
:1086C000AA8537A504001305055D97E0F26FE780E2
:1086D00080F12307040085475CA47C348144F1FBCE
:1086E0009F071CA604009C43D8431CC058C0D84315
:1086F00000C3C0C344A475BF9F040603000255BF56
:108700005377745F5461736B00009F073CA60400AD
:1087100023A007000145828028809F0744A604000B
:108720009CC3DCC39F0738A6040098439F0630A66D
:108730000400D4C294C21307C70201448547231C16
:10874000F7FC9C42232487FE0504D0431CC350C37E
:10875000D04318C2D8C31307C705BB18F40FEF00E6
:10876000F01E9F0550A604001F05C8A50400B931DE
:108770009F0740A6040080C30145248028801C4533
:108780002A8463CB0700B7A704000C4903A54767F9
:1087900097E0F26FE780A0559F0730A60400D4430E
:1087A000232804001307C40214D85CD498C2D8C389
:1087B00024803881B724002083A744E228003EC6E5
:1087C00097D0F26FE780E04B9F0744A60400C043B8
:1087D0006310F402224597F0F26FE7802090B247D1
:1087E00003A744E2638FE70097D0F26FE78000634E
:1087F000228597E0F26FE780C0FA130544FDBD3F84
:10880000E1B73481B7C7040083A7078999C3C84B70
:1088100082801F05070200028280B7C7040083A779
:108820000789014591C3885782807881B72A002043
:1088300083A74AE2AA892E843EC66305051663878C
:1088400005169C49638807169C4163890716DE213B
:108850003BFD5720B7A7040003AA4767DC4589E71B
:108860009F0700080000DCC54444528597E0F26F82
:10887000E780004D636C95144844952848C4AA8449
:1088800013050020AD2063E7A4145C441307F01027
:108890006372F71495201F0930A604008324490051
:1088A000638A240F938744FDF5CB268597E0F26F0A
:1088B000E78020EF05284C445285414697E0F26F4F
:1088C000E780603F2A8A15ED05288327490023A009
:1088D00024011F0400020003DCC084C3232299008A
:1088E000112079A8224517E3F26F6700237FC14565
:1088F00017D3F26F6700A35E280017D3F26F6700EB
:1089000043382A864C4403A584FEEF0070401C4483
:10891000184023AAA4FC23ACF4FE5C4423A244FF29
:1089200023A804FE23A0F4FE5E2023A6E4FE138702
:108930008401D8CC98CC1848239DF4FC8147DCD422
:10894000DCC89CD09CD4854723AEF4FC23AA04FE4B
:1089500023AEE4FE9307000081CFB7C7040083A7CE
:10896000078903A584FECC4B97000000E7000000B8
:108970008947239CF4FC83A784FE014423A0F900CB
:10898000B24703A74AE22285638AE70497D0F26FD1
:10899000E780C0481F041102000299B71F040102BA
:1089A00000023DBF1F0407020002D9BF1F040102DD
:1089B0000002F9B71F0405020002D9B71F04040220
:1089C00000027DBF1F04030200025DBF1F042002DE
:1089D00000027DB71F04060200025DB77481488162
:1089E0009F0438A60400372900208040832749E2ED
:1089F0005B14A45C3EC61C44898B6391071228005B
:108A000097D0F26FE780E027CD2813F717006313A4
:108A1000071013F7070115C39F07C8A50400985353
:108A200029C70547D8D71F040B02000311205DA0FA
:108A3000224517E3F26F6700636A13F747004DC7DB
:108A40001305C40297E0F26FE78000347D20ED9BB0
:108A50005EA0652093F7070A91C7228597E0F26F21
:108A6000E78020D85928F59B5EA0412813E617001F
:108A70007D5752A038C023260404C18BD1C71C44A3
:108A800063CE07009F0744A604009C431307C4025B
:108A9000D4435CD414D8D44398C2D8C39F0740A60B
:108AA000040098409C43DB17F75C5848D2A3D8CB0E
:108AB000184898CB185498D785475EA097D0F26F86
:108AC000E780C0360DCD9F07C8A504000947D8D759
:108AD00085370144B247032749E222856384E704CE
:108AE00097D0F26FE7808033A18BA5D71305C4021E
:108AF00097E0F26FE780E0CAA9BF5E20828097E02E
:108B0000F26FE780A031E9B785475EA02285BD31CD
:108B1000014429BF1F040A02000209BF1F041402F6
:108B200000024DBF44819F0740A604009C4363742C
:108B3000F50081456DB51F0507020002828048815E
:108B400037290020832749E23EC69F0740A604003C
:108B50009C43637DF5089F0738A6040080435B149F
:108B6000A45C280097D0F26FE780A0115E20A24499
:108B700013F7170025E713F727002DC713F7D7FFC3
:108B800093F78702219F91CB5AA0014411202DA871
:108B9000268517E3F26F670063546E201367470062
:108BA0005AA005461305C40297E0F26FE780E0196A
:108BB000C5379F074CA604009C430144858B89C799
:108BC00097D0F26FE780A00CB247032749E22285D5
:108BD0006382E70297D0F26FE78040241F040A0205
:108BE00000026DB71F04090200024DB71F040702FF
:108BF0000002D9BF448128802A84053901E5084054
:108C0000208035BF2480288237240020832744E237
:108C100023270100232B01003ECE9F07E6680400B6
:108C20003EC2930700603EC837A504009F07CA8E66
:108C300011903ECA4C00FD471305455E23250100F7
:108C4000231D01002314F1007D3719ED9F07C8A5EE
:108C500004001F0738A604001843DC4FDB17F75C3D
:108C600098471367270098C7F247032744E26386B3
:108C7000E70097D0F26FE780601A24825881B72905
:108C8000002083A749E2AE843EC63BF625209F071D
:108C900040A604009C43637AF5089F0738A60400A9
:108CA00080435B14A45C1C44898BC1E7280097D0E7
:108CB000F26FE78000FD5E2013F7170031EF13F726
:108CC000470031C71309C4024A8597E0F26FE78075
:108CD000A00B054666A0A6854A8597E0F26FE7805F
:108CE000C00605448144224597E0F26FE780003FCB
:108CF00009C497D0F26FE78080F9B24703A749E231
:108D00002685638CE70297D0F26FE780201191836C
:108D100066A013F41700F9B701449F040A02000289
:108D2000D9B79F0403020002C9BF9F0407020002D3
:108D3000E9B79F0414020002C9B75481488137295A
:108D40000020832749E2AA843EC697D0F26FE780CD
:108D5000E00D2DE5B7C7040003A407891C44898BE7
:108D6000B5E397E0F26FE780E0A42DC191EC97E0C6
:108D7000F26FE78040BCB247032749E2638CE70407
:108D800097D0F26FE7808009280097D0F26FE780D4
:108D900040EFA685228597E0F26FE780A0A35E20D2
:108DA00093E707025EA097E0F26FE7802007224575
:108DB00097E0F26FE7808032014575BF1F050D0215
:108DC000000355BF1F051402000275B71F050E02F0
:108DD000000255B744815881B729002083A749E292
:108DE0002A892E843EC6F9C59F0740A604009C43ED
:108DF0006376F50C9F0738A604008443DB94A45CDB
:108E0000280097D0F26FE780C0E7DE2013F7170045
:108E100011CF61281F050A020002B24703A749E2E9
:108E20006382E70A97D0F26FE78040FFC18BBDE70E
:108E30009C407CC4DE203146938504045EB0FE2055
:108E4000130504037EB0DC443CC09C487CC0978082
:108E5000F26FE780201CFC449054FD465CDCDC4C47
:108E60009305000222851CD49C50232024035CD44B
:108E70009760F26FE7800081DC4488486C401306FD
:108E800044053E957C44419928C4B307F5403CC84D
:108E9000EFF04FD328CC1128014541B797D0F26F9E
:108EA000E780C0F851F58A8769B7224517E3F26F6A
:108EB0006700C3221F050102000285B71F050702D4
:108EC0000002A1BF54810145828049646C65436FF3
:108ED00072653030300018809F0758A604009C430C
:108EE0001307703E6378F70097C0F26FE780005277
:108EF000014514801F0500040002E5BF38802A8464
:108F000015CDAE842E8681459780F26FE780801163
:108F1000938744FF18481CC49385C4FE9D579BC586
:108F2000F5CAB7070080F98F9306C400CD8F14C02F
:108F3000232604001CC854C0054534800145F5BFF4
:108F400041112A8722C626C4054505C79DC15C4339
:108F5000014881440144B1468DE31C47054563EA5D
:108F6000D700958F94C180C5DCC123A6050184C9B3
:108F700001453244A24441018280D043370500407C
:108F80007D1593181600718D63D70800A106AA9667
:108F900005089C43D1B76373A4002A848504D5BF18
:108FA0004E6F206D656D20746F20616C6C6F632057
:108FB0003078257820427974657320617420706F51
:108FC0006F6C5F616464723D30782578210A0030EF
:108FD00078256C78206F7574206F662072616E67DB
:108FE00065210A00488137290020832749E2AA84A5
:108FF0002E843EC605459DCC3BEF0515B3E7B40076
:109000008D8B89CF1F05129111909790F26FE78099
:10901000209593053400F1991384C5FF280097D05B
:10902000F26FE78000C6A2852685C93DA24701ED03
:1090300031280545B247032749E2638EE70097D000
:10904000F26FE780A0DD19200145EDB73E8517E3FB
:10905000F26F6700A3084481054669B728801F04A2
:1090600074A604009F0520D6000008C0F5371C40F8
:109070001F0770A604001CC324805882B729002053
:1090800083A749E22A892E843ECE854415C18DC12D
:10909000480097D0F26FE780C0BE2C004A854D355E
:1090A000AA84124585C097E0F26FE78020038544CB
:1090B000F24703A749E226856386E70297D0F26F5D
:1090C000E780C0D5A24744C81CC0B2475CC0C247B5
:1090D0001CC4D2475CC4E2471CC897E0F26FE7802B
:1090E000E0FFF9B7548282806661696C20746F205A
:1090F00066726565206D656D6F72792C20706F6F7B
:109100006C3D5B25705D2C206D656D3D5B25705D54
:109110000A00706F6F6C2073697A6520307825784B
:109120002073686F756C6420626520616C69676E7E
:1091300065642077697468204F535F4D454D5F41EA
:109140004C49474E5F53495A450A00009F077CA689
:1091500004000147DCC39CC30507A1073B1EF720A1
:1091600082801F05DE92119082803B7B055A8547E5
:10917000B397A70015813B0405013B050502F3B732
:10918000473001458280BE8273B002BEDDBFBE8221
:1091900073B012BEFDB71F050009000282803B7B41
:1091A000055A8547B397A70015813B0405013B0588
:1091B0000502F3A7473001458280BE8273A002BE3C
:1091C000DDBFBE8273A012BEFDB71F0500090002FD
:1091D00082801880AA873B74355A3BF535070145D4
:1091E000BBE3171A9917939627001D478D830D8FA0
:1091F000FD171376F70F3BF707073E8513F7C601F8
:10920000BD4797E0F26FE78000E226364452606E79
:109210007C00F32700BC3D473317D7001347F7FF07
:10922000F98F3317D6005D8FBA82739002BC148019
:10923000F32610BC8520BE82739012BC0145C5BFC9
:10924000F32620BC8128BE82739022BCC5BFF326C2
:1092500030BC8920BE82739032BCCDB7F32640BCAF
:109260001528BE82739042BCD1BFF32650BC1D208E
:10927000BE82739052BCD9B7F32660BC2128BE824F
:10928000739062BC65BFF32670BC2920BE827390C8
:1092900072BC6DB7B397E70093C7F7FFF58F33172D
:1092A000E600D98F82801F050009000249B71F051B
:1092B00005090002ADBF9F0744B40400694723AC11
:1092C000071223AE07120507B1073B1DF75AB7A7D0
:1092D00004001F07E492119023AAE75A8280504CA1
:1092E0004943000000000000087004009E911190A6
:1092F0006A911190D2911190D06F040062911190F7
:10930000D86F0400EC6F04000145828028802A8415
:1093100097E0F26FE78000DB9F07281E002080C3E4
:1093200097E0F26FE78080DB0145248048811F04CD
:109330007CB804005E242A89AE843BE227028D4774
:109340001EA0FD571CC49C442311240104C85CC00A
:10935000EFF0AFCC1E205A2436201044AA851F05FA
:10936000549411909780F26FE780805F0848114411
:109370008328C508032845011C4958451445504118
:109380000C4193040501484D2AC01F058894119093
:109390009780F26FE780C05C9F07E8941190A297D6
:1093A00083C7C7FFA2851F05DB9411909B87F40438
:1093B000904305049780F26FE780805A3B17F420B2
:1093C0004481B7A7040083A7C764858BB5DB97D01A
:1093D000F26FE780A0A519C189479DB785471EA0F8
:1093E000EFF04FC208C485B718809F077CB804000F
:1093F000DE27BB9407019F07281E00209C4391C3D2
:10940000829701A02537F5BF0F00F00FB7170200B4
:1094100023AC07C08280388044412A841F052897E6
:1094200011909780F26FE780A053F93FA2852685BF
:10943000F53D01A028802A8497E0F26FE78080C87C
:109440009F072C1E002080C397E0F26FE78000C9C1
:10945000014524807461736B3A25730A74687264E1
:109460005069643A307825780A747970653A3078B2
:1094700025780A6E657374436E743A25750A7068B0
:109480006173653A25750A006363617573653A30E7
:109490007825780A6D63617573653A307825780AA6
:1094A0006D7476616C3A307825780A67703A307856
:1094B00025780A6D7374617475733A307825780A6B
:1094C0006D6570633A307825780A72613A30782594
:1094D000780A73703A307825780A0058252D303292
:1094E000753A307825780A00021E1D1C0F0E1B1AD3
:1094F0001918171615140D0C0B0A09080706050490
:1095000013121110188097E0F26FE780A0BB01A042
:10951000488032842E892E86AA849F05CACACACA68
:1095200022859780F26FE780E0AF9F07CCCCCCCC50
:10953000130509EF22951CC09F07020202021CC5F9
:10954000130785009306C5101C431F060101010186
:109550001107B2971CC3E319D7FE9F07807800005C
:109560001CC19F07F66804005CC19F070495119019
:109570002320051064D57CDD44800000000000003D
:10958000732500349792EE8F9382828A83A2020021
:1095900082927321003489629382028073A0023028
:1095A00083220111739032009302010987AD0200FA
:1095B00007AD420087AC820007ACC20087AB020156
:1095C00007AB420187AA820107AAC20187A902024A
:1095D00007A9420287A4820207A4C20287AF02033E
:1095E00007AF420387AE820307AEC20387A8020417
:1095F00007A8420487A7820407A7C20487A602051A
:1096000007A6420587A5820507A5C20587A302060E
:1096100007A3420687A2820607A2C20687A1020705
:1096200007A1420787A0820707A0C207C242739022
:109630000230D2427390123405610B06E17F45611E
:109640008B0FF1FF21617300203013000000010037
:109650009722F36F9382C2220393C2006316030022
:109660001781EE8F1301019A0503239662003703D9
:109670000040B3736A0063840300C14231A837031A
:109680000080B3736A0063840300C54231A0B7024F
:109690000080FD12B3F259001685F32500349702BD
:1096A00000009382A2D4829201A00000000000007A
:1096B000930201010B96E27F9302010827A0B201F9
:1096C00027A2A20127A4920127A6820127A872013E
:1096D00027AA620127AC520127AE420127A032031C
:1096E00027A2220327A4920227A682024111732AED
:1096F00020FC52C0F32920344EC2732930344AC4AE
:109700000EC6F324003026C87324103422CA12CCAB
:109710000ACE7310013491C111A01DBF1781EE8FC5
:10972000130141AEB1BD19B14F6F70733A4E4D493F
:089730000A0000000000000027
:1097400028802A8401C9EFF02FFE09C522852080D8
:109750006F20B02B2480B7A70400AA8503A5076754
:109760006F50A032B7A70400AA8503A507676F5002
:10977000C0390F00F00F828005458280397106CE16
:1097800022CC2ED232D436D63AD83EDA42DC46DE6D
:1097900009C92A84D53711C54C1022852EC6EF4041
:1097A000F00BF24062442161828001C508416F40A4
:1097B000A0467D55828048802A84AE8432853689D1
:1097C00001CC3B0206FFEF508009AA8608404A867A
:1097D000A68540806F4020377D5544801880EF502B
:1097E00020700F00F00F14801880EF5020700F00D1
:1097F000F00F14801880EF5020700F00F00F1480CD
:109800001880EF40004E19E10F00F00F14806F40F8
:10981000B0236F40901F09C50841FD556F40A05906
:109820007D55828001C508416F40606C8280288030
:109830002A8419C93B8305FF2E85EF504002AA8573
:10984000084020806F40B0247D55248001C5084128
:109850006F40B02E82806F4030786F407079828088
:1098600011C50A2117730D90670043BB7D55828097
:10987000188011CD0A2197700D90E78080BA9F075C
:109880000D0300026307F50001E5054511A07D55B4
:1098900014800145F5BF0145828068819F07C8B8E3
:1098A0000400DB97A706BC33A5EF2A898041EF109F
:1098B000A028AA892E8A8144B3579400858B89CF2A
:1098C00093F5F40FA92009E9B247BB930701B397B9
:1098D000970093C7F7FF7D8C8504BB97F40CA68592
:1098E0003D2001E5B2473B8C0701EF10E024B307B0
:1098F00035413335F500B38545416396A50013071F
:10990000803E637EF7001F051313008001A87000DE
:109910004A8502C615AB1F0511130080648141FC06
:109920000145EDBF88829F07C8B8040002C2DB97DB
:10993000A7062313B10002C4A38107003284AA8AB8
:10994000500089456928AA8405E503290400032AF3
:10995000440002C602C8814963EE490193070040F2
:1099600002CA3ECC2C088D28AA8401468D45BD2014
:109970002685848202C00A8695458D200247B3075A
:109980003A4102CA02CE6374F7043ACC63950900E7
:109990001C34A30EF1005008A145892001E993076A
:1099A00000083EC889473EC60C083D20B307390170
:1099B00056853ECA7D232A8B4C0856851D21AA84D4
:1099C000DA8556854523D5F0E247BE9971B73ECC7E
:1099D0001C24230EF1005DBF5685C1B55685ADA18F
:1099E00041BF88829F07C8B8040002C2DB97A70660
:1099F0002313B10002C4A38107003284AA8A500055
:109A000081456128AA8405E902C602C802C003296B
:109A10000400032A44000A869145BD2882478149F3
:109A2000B5E39307002002CA3ECC2C08B928AA84CB
:109A300001468545952026858482930700043EC80B
:109A400095473EC60C089120AA847DF10247B307D2
:109A50003A4102CE637DF7023ACC639509001C348B
:109A6000A30EF100B307390156853ECADD292A8BC2
:109A70004C085685D524AA84DA855685E521CDF88B
:109A8000E247BE99E3EB49FB69BF568539B53ECC49
:109A90001C24230EF100D1B756857DA65881AE89CE
:109AA000B2852A89B28497500D90E780C0112A842C
:109AB00015ED4A8597500D90E780400C2A841DE5EE
:109AC0009C4002C63EC2DC409F04D0B804009B8488
:109AD00024053EC4268585472306F1002D3B500012
:109AE000CE854A85FD3D2A8426852D3B22855481DD
:109AF0005881AE89B2852A89328497500D90E780CB
:109B00008009AA841DE51C4402C63EC25C441F04B1
:109B1000D0B804001B0424053EC4228585472306D3
:109B2000F100D5395000CE854A85ED3BAA842285C7
:109B3000D53926855481014582809F0780BC040069
:109B40001B85A7041C410145BC538583858B9CC1A3
:109B5000828085479CC10145828028802E842546CD
:109B60008945B12608C0014524807880C441AA8A6D
:109B7000A9C42E84A685992A4169014A7D196302E8
:109B800009049F0980BC04009B89590583A709002B
:109B9000BC538583858B91CF13351A001424050A95
:109BA0000C3433864441133616003D2683A7090042
:109BB000C8CFE3659AFC014574801F05101300802F
:109BC000E5BF1F0513130080C5BF6881AA892E85D4
:109BD000B285700055282A8421C1139A29001F09D3
:109BE00080BC0400B3042A0198408346F1004E85EE
:109BF0005C43858AF99B5CC31C43BD9B9BA7D7082C
:109C00001CC38347E10099EB0D26B30749019C4330
:109C1000D84313671700D8C3228564812D2694404A
:109C20008357C100984A13F6F73F937707C0D18F47
:109C30009CCAE1BF38802E84AE210946AA847137C0
:109C400019C5268521221C201CB5014534801F051D
:109C500007130080E5BF38802E84AE210546AA8414
:109C6000AD3719C52685DD201C201CA50145348093
:109C70001F0507130080E5BF014582800D000E001F
:109C800010000E0016000E001F07A01E0020014845
:109C9000BA8716236365D502362363E2A6029B8743
:109CA0000707F82381466D8F6310B7021375F53FE0
:109CB0000AA2D823854638A2DC333CB231A005087D
:109CC00021073B14F8088146368582809F0780BCB7
:109CD00004001B85A70418413C4B91E18545FD1507
:109CE000819D93F707F0CD8F3CCB828028802E8416
:109CF000194689456D2A08C0014524809F0774BC18
:109D000004005B95A70A7A213621814763F4E600B7
:109D1000B307D7409CC1014582809F0774BC0400F3
:109D20005B95A70A5E2185839CC191E385479CC111
:109D30000145828085479CC10145828028802E8410
:109D400025468945AD2208C0014524809F0774BC83
:109D500004005B95A70A82809880DC41BDCB2E84ED
:109D60002A8AEF00705D03290400832944002A8BAE
:109D7000AE8B8144EF00505C33076541B337E5009B
:109D8000B3857541639BF5049307803E63E7E70461
:109D90009F0780BC04009B8747059C43BC53858379
:109DA000858B9DC3938A140014240C343386594147
:109DB0001336160013B514008122B30799009023BF
:109DC000AA855285912AD6845C40E3E5F4FA0145E0
:109DD00094801F0509130080E5BF1F051313008041
:109DE000C5BF6880DC41A9CB2E842A89EF00D054FE
:109DF000AA892E8A8144EF00305433073541B337A6
:109E0000E500B3854541639DF5029307803E63E914
:109E1000E7029F0780BC04009B87270598433C53BB
:109E2000A18B91C71C40584FA69798A385045C400E
:109E3000E3E3F4FC014564801F0510130080E5BFD7
:109E40001F0513130080C5BF1F0770BC04001B074C
:109E5000A7041C4399C79B87B7049C4399C7B28545
:109E600082871F050013008082801F050313008076
:109E700082809F0780BC04001B85A7041C4101450C
:109E8000F1079CC1828001479F0780BC04009B872B
:109E9000A7049C43BC538983858B99C30145828069
:109EA0000507E3F3E5FE1F053313008082809F075B
:109EB00080BC04001B85A7041C4191C5BB8505011E
:109EC00003A5870B19A003A5470B3355C5000589CA
:109ED000828003A5070BD5BF81473B1305013B9249
:109EE0000501930700403B1306013B92060193E7EF
:109EF000072013E50710828081473B1305013B9241
:109F00000501930700403B1306013B92060193E7CE
:109F1000072013F5F7EF82809F0780BC04001B85A4
:109F2000A7041C414D8ED0CF82809F0780BC0400C7
:109F30001B85A7041841C1461C4B93F7F7BF9BA78D
:109F4000D7F21CCB82809F0780BC04001B85A7042E
:109F50001841BD561C4B93F7F7BF9BC7D7F21CCBDC
:109F60008280ADB82E8579B05C459B85B704984159
:109F70001C49937677001B86C7041C42BB9B0601D5
:109F80009D8B3B9A07019F07E4BA0400D8C318428F
:109F9000D8C7584998CB584198C31845BB650702A4
:109FA00098A7184D0145D8CB82801F054613008025
:109FB00082801F054913008082809F07FCBA04003D
:109FC0009C2399CF9F07E4BA04009C433307B50054
:109FD00063ECE700637AE5006368B70001458280BF
:109FE0001F054013008082801F05010000808280D1
:109FF00078819F04FCBA04009C202A84ADEF7D5533
:10A0000059C4EF00301E6800B52551E1B24A03493A
:10A01000040083491400EF00300C2A8AEF00500C32
:10A02000AA86D2870147639AE604EF00B00B054683
:10A0300081451D3F29ED1F07FDBA040085471CA37C
:10A040005840B70710906367F7041F06E4BA04008E
:10A0500014441C4263F3F600B6877D173E97B7069B
:10A0600080906379D7021CC285479CA09F07FDBAE8
:10A0700004009C2385E7014519A83E85F10703A646
:10A0800047FE6397CA004E86CA85F93D55D974814B
:10A09000050751BF1F0542130080D5BF1F0541139F
:10A0A0000080F5B788812E8AB285AA89B2843137BB
:10A0B00041ED7D55630A0A08EF00D01413F9390009
:10A0C0002A8B630209049147B3872741B389294149
:10A0D00093FAF70F63F4F40093FAF40F02C61146F3
:10A0E0006C00A5202A8429ED7C00D68633862701C2
:10A0F000D685952009C51F040400008091A0910910
:10A10000569AB384544113F9C4FF630B09004A867D
:10A11000D28525282A840DE54A9ACA99B384244118
:10A12000014499CC9F07E4BA040002C6D443114607
:10A130006C0005202A84A6867000A685292845FD86
:10A140005A85EF00700C228584819F07E4BA0400D1
:10A15000D4434E858DA352856FB06FF19881AE8A3E
:10A16000B2852A8AB284913D2A844DE563890A0C1E
:10A17000B3059A005285EF00700993793A00AA8BD3
:10A18000638E09049147B3873741330A3A4113FB81
:10A19000F70F63F4F40013FBF40F1F09E4BA040093
:10A1A0008326490095282A8409ED7C00DA865686A4
:10A1B000DA8533853701EFB08FEB09C91F0404003E
:10A1C0000080112081A85E856F0070098326C90078
:10A1D0009D202A84110ADA9AB384644193F9C4FF5A
:10A1E0006DF0638E09009F07E4BA0400D4474E86E1
:10A1F000D685A120CE9A4E9AB38434411DE9F1D080
:10A200001F04E4BA04005440012819C96D3F1F041B
:10A21000040000802285948111466C00528561A95A
:10A22000A686568691456800EFB06FE465F1544408
:10A2300019202A8479B711466C00528531A37D54C8
:10A24000D1BF8880AA842E848D3B39E1B3858400F8
:10A25000FD7713974501B3F9F40041CBED8F056706
:10A26000BA971F0501000080639434036392F502DE
:10A270004E8533893541EF0060792A8B0144814A4C
:10A28000014A631E090481445A85EF00407D2685FA
:10A2900084809C4B9B87D7048043935AE400568A62
:10A2A000636759019387FAFFB3F7370191CB8506AE
:10A2B0009F07E4BA04009827E3EDE6FC6383E60217
:10A2C0009167FD177D8C1B24541D0146A2854E8588
:10A2D000C129AA8455F933094941D2995DB7854608
:10A2E000C1BF9F044713008045B7E38334F91F05BE
:10A2F0000100008071BF68809F07FCBA04009C23A6
:10A3000095C7BBFC06131DC63284B684AE892A8964
:10A31000EF00406F2A8A2286A686CE854A85452987
:10A320002A845285EF00406E228564801F0440130A
:10A330000080DDBF1F0401000080FDB728801F04DE
:10A34000FEBA04001C2081E7712985471CA0014545
:10A3500024801F07FEBA04001C2381C723000700C6
:10A360006DA101458280B7070090138707109F06F3
:10A37000F8BC040098C2138707209F06ECBC0400B9
:10A3800098C2138707249F06E8BC040098C213876D
:10A3900007309F06F4BC040098C2938707401F074C
:10A3A000F0BC04001CC301458280B7C7040003A7AA
:10A3B00047CF9D561B45D5CA5C47B70600C0F58FF1
:10A3C000C98F5CC782805881AA8419252A893125C2
:10A3D00092470D57054493F7778093E787029BC711
:10A3E000E7EE22C4AA89331494003EC202C6814417
:10A3F0004800BD21854501462E854521F121B7C77D
:10A40000040083A707CF9C43E18F91CF4E85EF00D7
:10A41000A0789387140063E624011F05441300808D
:10A420005481BE84F1B70145E5BF48819C212A894A
:10A430002E848E0793E717003EC29307F5FF014570
:10A440003EC402C64937AA840DE5480011290547D4
:10A4500002C063622703B7C7040003A707CF824780
:10A460009335290001461CC393C5150001453521CC
:10A47000A129268544811C08B386E700B307E400C0
:10A480009C230507A387F6FEE9B718810145253F00
:10A4900099476C0005452306F100413FAA8719E161
:10A4A0001D37AA873E85148158852A89AE89B284D2
:10A4B0003684E13FAA8721E922C24800398026C4B8
:10A4C00022C6792E4A85D535A6864E869305000488
:10A4D0000808EFB0CFB9FD571DE513F63400333649
:10A4E000C0001B069644219E1808814593970501DC
:10A4F000C18363ECC7000546B2850145792EE92684
:10A500000145D135AA873E855485B7C6040083A688
:10A5100006CF1C4311079B86B6049CC28505F9B77C
:10A52000488593079025854401453EC2328936848B
:10A5300036C426C6493DAA8725E1480015260145AF
:10A54000AD352686A6852685892EBD2E13060004E8
:10A5500081450808EFE0DF8EB7C7040003A607CFE8
:10A56000935624000C080147631AD70293773400EE
:10A5700091CB931727003307F60018439408B6973A
:10A5800023A0E7FCA2861008A2854A85EFB02FAE73
:10A59000FD5719E10D3DAA873E8544859B07E604DA
:10A5A0009C430507910523AEF5FE7DBF38858E05DA
:10A5B00093E515002EC236C402C6B2843684A920A3
:10A5C00019E925C0A2862686930500040808EFB085
:10A5D0000FAA19C17D55348593763400B336D00067
:10A5E0009B868644A19E1808814593970501C183E7
:10A5F00063EED70005444800A5240146A285014525
:10A60000692CD9241120C1BF014575BB37C6040090
:10A61000032606CF1C4311071B06B6041CC2850582
:10A62000E9B70144C9BF45BF38818E0593E51500E0
:10A630000145B28436842EC236C402C66933AA8765
:10A6400005E94800312C85452E850146B924AD2CFD
:10A65000B7C7040083A707CFA2860A869C43A285BA
:10A6600026853EC0EFB0AFA0FD5719E1A93BAA87F0
:10A670003E85348128812A84FD31252815E931461B
:10A680009F05282A04004800EFE08FFA4800C92AF5
:10A69000854501462E851124052CB7C7040083A7E4
:10A6A00007CF130700F09C439BC7E7D01CC01120C5
:10A6B0002481014509BB7885AA892E8A328436898E
:10A6C00093040004014525C4935AE900ED3925E1BE
:10A6D00063739400A2849167FD17B377F9009BA779
:10A6E000571D48003EC226C456C69D2A4E85753960
:10A6F0000546B28532855522C12A13F73400B7C703
:10A7000004003337E00003A507CF1B079744140864
:10A71000219F8145368693970501C18363EAE7004F
:10A72000A686A6855285EFB08F9419C97D5574858C
:10A730009B07B5049C438505910623AEF6FEE1BF59
:10A74000A699269A058CBDBF78809377F5031307E9
:10A750000004B304F740AA892E8A3284B68A637350
:10A760009600B28426864E853D202A891DE1058CFF
:10A770000DC0269ACE94A2893B620441930900043D
:10A780004E862685092819E9330434414E9ACE9421
:10A790007DF04A857480D686D28539B32A89D5BFA3
:10A7A000488197100E90E780E018C53105E1480018
:10A7B00026C202C402C66D202285C53E014513464D
:10A7C00019008145D92809220145F53E4481BB7411
:10A7D00005039F07342A04009B87A7049C438287B4
:10A7E0007D558280B7C7040083A7C7CE1F07FCBC76
:10A7F00004000145944314C3D44354C3944B14C779
:10A80000D44B9C4F54C71CCB828018809F07FCBC44
:10A81000040037C6040098438326C6CE014598C27B
:10A820000327C6CED44354C3944714CBD4479C4B80
:10A8300054CB1CCFB7C7040083A787CF054798CB5D
:10A840005936014514800000F9040000030000009F
:10A8500000000000082804008C27040000270400E2
:10A86000B7C7040003A647CF1C41144613D73700CF
:10A870009375F70F13F706F04D8F14454C41AD83D8
:10A880009D8B9D8AC607FD1593F5F5039BA7D708F9
:10A890009BA7B71218C61CC28280B7C7040003A7C3
:10A8A00047CF058985891C43058A93F7F7EF9BA756
:10A8B000A71093F7F7F79BA5B70EDD999BA5C506E3
:10A8C00013E6350010C38280B7C7040003A747CF43
:10A8D0001C43858BF5FF82801F05342B040082808A
:10A8E000054582801F05502B0400828039C6FFFF7A
:10A8F000C106004001010004020000000000000049
:10A9000019000000010000001100000039C6FFFF1F
:10A91000C10600409102002001010004190000005E
:10A9200059400000D9490000D9550000596B00007A
:10A9300059F7000001000000110000000040000075
:10A9400000400000912900000040000002000000CB
:10A9500000000000C86014000000100004000000A7
:10A96000FC2A0400142B0400EC2A04002C2B040005
:10A97000FFFFFF000000080003000000E02A0400C1
:10A98000E42A0400CC2A0400D82A04003881930762
:10A9900010283EC202C402C62A84AE842D208145FE
:10A9A0002D201D37A5473EC289473EC4B7C70400C6
:10A9B00083A707CF02C69B2594108CC32920854509
:10A9C000292019373481480061BD01460145F1B5A0
:10A9D0009F07B41F0020884382809F07B01F00207C
:10A9E0008843828028801F0440BD04001C2091EB16
:10A9F0001F053CBD040097400D90E780800285470D
:10AA00001CA024806FE09FDD6FE0DFDE38812A84A8
:10AA1000EFE0DFDC23070100A3070100AA8413068F
:10AA2000E10095453D201306F100930550031520E4
:10AA30008347E1003707080093F73708637EE40097
:10AA40002307F1000345E1008345F10081372685A6
:10AA500034818546014545B093E70703D5B7288182
:10AA600023070100A30701002A841306E10095458E
:10AA70001D201306F1009305500331280345E10022
:10AA80008345F1001365C5072307A100013722851F
:10AA9000EFE05FD6248185460145B1B84880EFE0FC
:10AAA000FFD31F04E0B804001C202A8991C7EFE0FF
:10AAB0007FD4814426854480AD22AA8409C54A8575
:10AAC000EFE05FD3C5BF85471CA0D5BF4880EFE04E
:10AAD000FFD01F04E0B804001C202A8991E7EFE0B2
:10AAE0007FD18144268544809D22AA844A85230003
:10AAF0000400EFE03FD0FDB74880EFE03FCE9F0776
:10AB0000E0B804009C232A8991E7EFE0BFCE01451D
:10AB10008145448089222A844A85AE84EFE09FCD16
:10AB20009F07E8B804008843DC432295333485004E
:10AB3000B385F400A295F1BF18807D3F216613060E
:10AB400006D08146EFD05F8114801880753715815B
:10AB50001B25B5369581148038809F07E0B8040026
:10AB60009C238DCB2A84493F1F07007D0000B3073B
:10AB7000E4023334E402B384A700B3B7F4002E94A4
:10AB80003E949D3FE3EF85FE6314B400E36B95FEB6
:10AB9000014534807D55F5BF38809F07E0B804003B
:10ABA0009C238DC72A84893F93175400B384A70040
:10ABB000B3B7F4001B8485763E943D3FE3EF85FEFA
:10ABC0006314B400E36B95FE014534807D55F5BFF9
:10ABD00028802A8415379F07F0B8040088C3CCC3A7
:10ABE00019C008C04CC00145248015C918805841BF
:10ABF0001C411F06F0B804001442160750421B27E0
:10AC0000F7769607BE96B3B7F60032979F05E8B879
:10AC10000400BA9794C1DCC1553D108041B57D5503
:10AC200082801880B92805E1B7C6040003A7C6C909
:10AC30001C4393E747001CC303A7C6C91C4393E703
:10AC400027001CC314801F0580110080E5BF1880F9
:10AC5000B92001451480B7C6040003A7C6C91C4328
:10AC600093E717001CC37D5783A7C6C99C439183F4
:10AC7000858BBB8307017D1765FB0145814582807C
:10AC80002DA01880912001C981209F079CBC040041
:10AC900088C3014514801F0580110080E5BF9F0710
:10ACA0009CBC040023A0070082809F079CBC04007A
:10ACB0009C438C4BD8478847DC43219F9B25B7207A
:10ACC000A19F1BA5A72082801F050002005782803C
:10ACD0008280588102C2A301010009CD81CDAE84DA
:10ACE0002A89A5352AC4EFE07FAFAA894800A922A6
:10ACF00019C1AD20548192471F0450C2040063F66D
:10AD0000F404938564002316B10013063100CA854C
:10AD10002800E1281C2081E7834731001CA01F0781
:10AD200044C204001C4385071CC30D2897000E90E5
:10AD3000E78000E53B10F5021C20CDDF97800E90E8
:10AD4000E78020112300040075B785471F074CC218
:10AD500004001CA01C4385071CC3D1B74E856FE0BF
:10AD60007FA99F07D41F00208823828088801F0925
:10AD700060C20400832709009F0958C20400AE8AFC
:10AD8000C04383A509001F0A5CC204002A8B032567
:10AD90000A00B384854022955A86A68563E9540348
:10ADA000D686EFA0DFAC1DE183A70900B3055401EF
:10ADB0000324090063EBF5009D8D63E8F50093051E
:10ADC000A0022545EFE04F8981454CC08480A686CE
:10ADD000EFA0FFA965FD83270900B3869A403306DB
:10ADE0009B008C4303250A006DBF48802E8999453E
:10ADF0002A84B284A53F5C204C304A859BA5B710BD
:10AE0000E915AD379F0760C2040098431C435843BF
:10AE1000636EF7005420B307F74058301BA7E610C5
:10AE2000B337F70093C717009CA044809F0658C211
:10AE3000040094423697F9BF9F0760C2040098430C
:10AE40002A860D4514435C431F0758C2040018436B
:10AE500063F6E60263F4E70263ECD7007D173697EA
:10AE6000B307F740BBF407072320060001458280A3
:10AE70001387F6FFF5B7E9171CC2CDBF8280288083
:10AE80001F04C4B804001C20014591E78526D12881
:10AE900019E185471CA0248018809F07C4B80400CE
:10AEA0009C2389C7D1287D2C014514801F050011E2
:10AEB0000080E5BF9F07C4B804009C2391C3B9AAD2
:10AEC0001F050011008082809F07C4B804009C23E6
:10AED00099C728802A84192E2285208091A21F05D7
:10AEE000001100808280D6875287CE864A86A6854A
:10AEF00022858280B727002083A707F999C71F07FB
:10AF000004BB04001CC3014582801F0501110080A1
:10AF1000828001458280B7C7040003A747B05C4F19
:10AF2000F99B5CCF828028801F0608BB0400814605
:10AF300037C40400032744B031061B07D70A832710
:10AF400087108506F99B2324F710230E06FEBB9875
:10AF5000F608D137832744B0D84F13671700D8CFEE
:10AF600024801880413F09E57D3F4145108055B759
:10AF70001F05011100801480B7C7040083A747B0E4
:10AF8000D84F13671700D8CF81471F0708BB0400AD
:10AF90003E9723040700B10713070009E397E7FE74
:10AFA0008280688037CA040083294AB09F0408BBA6
:10AFB000040026890144CE852285892A11CDCE85BB
:10AFC0002285AD228128832709002304090089C72F
:10AFD00003264900014589200504019C31093B16DF
:10AFE000F40C03294AB00144CA852285052A01CD03
:10AFF000CA852285B12239289C402384040081C758
:10B00000D040114511280504019CB1043B17F40CF4
:10B010006080E1AA22857DA2A28582870145828087
:10B020001880113701451480BB711508B73704002B
:10B03000938747251B85A7041C41828713F51500BC
:10B04000828013D515000589828013D52500E5BFC0
:10B0500013D53500CDBF13D54500F5B713D5550031
:10B06000DDB713D56500C5B713D57500E9BF014538
:10B07000828000001C320400223204002A320400C4
:10B0800030320400363204003C3204004232040004
:10B09000483204003B770508B73704009387C72C74
:10B0A0001B85A7041C4182879C2193E717009CA164
:10B0B00082809C2193E72700DDBF9C2193E7470016
:10B0C000FDB79C2193E78700DDB79C2193E707013B
:10B0D000F9BF9C2193E70702D9BF9C2193E707049E
:10B0E000F9B79C2193E707F8D9B70000883204002C
:10B0F000923204009A320400A2320400AA32040000
:10B10000B2320400BA320400C23204001880CC41CA
:10B11000A181819D113F3335A00014801880CC415E
:10B12000C181819D11373335A00014803881AE84F0
:10B1300080456C0002C6B93FB2475D8C80C4348143
:10B1400038818045AE846C0002C6A937B2479B2780
:10B15000F4109CC434811880A93513059003108025
:10B160006FE00FEA18800147814601469F0536339C
:10B1700004001305900397400D90E7804086130567
:10B18000900397400D90E780C0879F07147311903C
:10B1900083C5970313059003108017430D90670034
:10B1A000C3873B76051085471F0728BD04003395EC
:10B1B000A7001C4381C55D8D08C382801345F5FF40
:10B1C0007D8DDDBF38801F041CBD04002A94AA8435
:10B1D000082011281F0510BD0400269508212120F4
:10B1E00023000400348081456DBF82803707005200
:10B1F0008357073E93E707012310F73E82803B7693
:10B20000050391C909CA9F0780B904003E951C2116
:10B2100099C7014582801F050100008082801F05BB
:10B220004010008082809305C004B306B5029F07DA
:10B23000F4B904003386D7001842B106BE96410720
:10B2400013880604637C070118C23305B5023E95D6
:10B250001E2523150500FD171EA5828014C2F5B713
:10B2600038801F04F4B904005B14A44C04403E244D
:10B2700005468C40BE95EF00C0772A240505219D28
:10B280002AA4DC443335F500134515003480388199
:10B290002A8423070100A30701001306F100A94532
:10B2A000EF0020778347F1009F0490B9040089CF15
